{
  "_format": "hh-sol-artifact-1",
  "contractName": "CPNFT",
  "sourceName": "contracts/cpop/CPNFT.sol",
  "abi": [
    {
      "inputs": [
        {
          "internalType": "string",
          "name": "name_",
          "type": "string"
        },
        {
          "internalType": "string",
          "name": "symbol_",
          "type": "string"
        },
        {
          "internalType": "string",
          "name": "baseTokenURI_",
          "type": "string"
        }
      ],
      "stateMutability": "nonpayable",
      "type": "constructor"
    },
    {
      "anonymous": false,
      "inputs": [
        {
          "indexed": true,
          "internalType": "address",
          "name": "owner",
          "type": "address"
        },
        {
          "indexed": true,
          "internalType": "address",
          "name": "approved",
          "type": "address"
        },
        {
          "indexed": true,
          "internalType": "uint256",
          "name": "tokenId",
          "type": "uint256"
        }
      ],
      "name": "Approval",
      "type": "event"
    },
    {
      "anonymous": false,
      "inputs": [
        {
          "indexed": true,
          "internalType": "address",
          "name": "owner",
          "type": "address"
        },
        {
          "indexed": true,
          "internalType": "address",
          "name": "operator",
          "type": "address"
        },
        {
          "indexed": false,
          "internalType": "bool",
          "name": "approved",
          "type": "bool"
        }
      ],
      "name": "ApprovalForAll",
      "type": "event"
    },
    {
      "anonymous": false,
      "inputs": [
        {
          "indexed": true,
          "internalType": "address",
          "name": "previousOwner",
          "type": "address"
        },
        {
          "indexed": true,
          "internalType": "address",
          "name": "newOwner",
          "type": "address"
        }
      ],
      "name": "OwnershipTransferred",
      "type": "event"
    },
    {
      "anonymous": false,
      "inputs": [
        {
          "indexed": true,
          "internalType": "uint256",
          "name": "tokenId",
          "type": "uint256"
        },
        {
          "indexed": false,
          "internalType": "enum CPNFT.NFTLevel",
          "name": "level",
          "type": "uint8"
        }
      ],
      "name": "TokenLevelSet",
      "type": "event"
    },
    {
      "anonymous": false,
      "inputs": [
        {
          "indexed": true,
          "internalType": "uint256",
          "name": "tokenId",
          "type": "uint256"
        },
        {
          "indexed": false,
          "internalType": "bool",
          "name": "isStaked",
          "type": "bool"
        }
      ],
      "name": "TokenStakeStatusChanged",
      "type": "event"
    },
    {
      "anonymous": false,
      "inputs": [
        {
          "indexed": true,
          "internalType": "address",
          "name": "from",
          "type": "address"
        },
        {
          "indexed": true,
          "internalType": "address",
          "name": "to",
          "type": "address"
        },
        {
          "indexed": true,
          "internalType": "uint256",
          "name": "tokenId",
          "type": "uint256"
        }
      ],
      "name": "Transfer",
      "type": "event"
    },
    {
      "inputs": [
        {
          "internalType": "address",
          "name": "to",
          "type": "address"
        },
        {
          "internalType": "uint256",
          "name": "tokenId",
          "type": "uint256"
        }
      ],
      "name": "approve",
      "outputs": [],
      "stateMutability": "nonpayable",
      "type": "function"
    },
    {
      "inputs": [
        {
          "internalType": "address",
          "name": "owner_",
          "type": "address"
        }
      ],
      "name": "balanceOf",
      "outputs": [
        {
          "internalType": "uint256",
          "name": "",
          "type": "uint256"
        }
      ],
      "stateMutability": "view",
      "type": "function"
    },
    {
      "inputs": [
        {
          "internalType": "uint256[]",
          "name": "tokenIds",
          "type": "uint256[]"
        }
      ],
      "name": "batchBurn",
      "outputs": [],
      "stateMutability": "nonpayable",
      "type": "function"
    },
    {
      "inputs": [
        {
          "internalType": "address[]",
          "name": "to",
          "type": "address[]"
        },
        {
          "internalType": "enum CPNFT.NFTLevel[]",
          "name": "levels",
          "type": "uint8[]"
        }
      ],
      "name": "batchMint",
      "outputs": [],
      "stateMutability": "nonpayable",
      "type": "function"
    },
    {
      "inputs": [
        {
          "internalType": "address[]",
          "name": "from",
          "type": "address[]"
        },
        {
          "internalType": "address[]",
          "name": "to",
          "type": "address[]"
        },
        {
          "internalType": "uint256[]",
          "name": "tokenIds",
          "type": "uint256[]"
        }
      ],
      "name": "batchTransferFrom",
      "outputs": [],
      "stateMutability": "nonpayable",
      "type": "function"
    },
    {
      "inputs": [
        {
          "internalType": "uint256",
          "name": "tokenId",
          "type": "uint256"
        }
      ],
      "name": "burn",
      "outputs": [],
      "stateMutability": "nonpayable",
      "type": "function"
    },
    {
      "inputs": [
        {
          "internalType": "uint256",
          "name": "tokenId",
          "type": "uint256"
        }
      ],
      "name": "getApproved",
      "outputs": [
        {
          "internalType": "address",
          "name": "",
          "type": "address"
        }
      ],
      "stateMutability": "view",
      "type": "function"
    },
    {
      "inputs": [],
      "name": "getCurrentTokenId",
      "outputs": [
        {
          "internalType": "uint256",
          "name": "",
          "type": "uint256"
        }
      ],
      "stateMutability": "view",
      "type": "function"
    },
    {
      "inputs": [],
      "name": "getNextTokenId",
      "outputs": [
        {
          "internalType": "uint256",
          "name": "",
          "type": "uint256"
        }
      ],
      "stateMutability": "view",
      "type": "function"
    },
    {
      "inputs": [
        {
          "internalType": "uint256",
          "name": "tokenId",
          "type": "uint256"
        }
      ],
      "name": "getTokenLevel",
      "outputs": [
        {
          "internalType": "enum CPNFT.NFTLevel",
          "name": "",
          "type": "uint8"
        }
      ],
      "stateMutability": "view",
      "type": "function"
    },
    {
      "inputs": [
        {
          "internalType": "address",
          "name": "owner_",
          "type": "address"
        },
        {
          "internalType": "address",
          "name": "operator",
          "type": "address"
        }
      ],
      "name": "isApprovedForAll",
      "outputs": [
        {
          "internalType": "bool",
          "name": "",
          "type": "bool"
        }
      ],
      "stateMutability": "view",
      "type": "function"
    },
    {
      "inputs": [
        {
          "internalType": "uint256",
          "name": "tokenId",
          "type": "uint256"
        }
      ],
      "name": "isStaked",
      "outputs": [
        {
          "internalType": "bool",
          "name": "",
          "type": "bool"
        }
      ],
      "stateMutability": "view",
      "type": "function"
    },
    {
      "inputs": [
        {
          "internalType": "address",
          "name": "to",
          "type": "address"
        },
        {
          "internalType": "enum CPNFT.NFTLevel",
          "name": "level",
          "type": "uint8"
        }
      ],
      "name": "mint",
      "outputs": [
        {
          "internalType": "uint256",
          "name": "",
          "type": "uint256"
        }
      ],
      "stateMutability": "nonpayable",
      "type": "function"
    },
    {
      "inputs": [],
      "name": "name",
      "outputs": [
        {
          "internalType": "string",
          "name": "",
          "type": "string"
        }
      ],
      "stateMutability": "view",
      "type": "function"
    },
    {
      "inputs": [],
      "name": "owner",
      "outputs": [
        {
          "internalType": "address",
          "name": "",
          "type": "address"
        }
      ],
      "stateMutability": "view",
      "type": "function"
    },
    {
      "inputs": [
        {
          "internalType": "uint256",
          "name": "tokenId",
          "type": "uint256"
        }
      ],
      "name": "ownerOf",
      "outputs": [
        {
          "internalType": "address",
          "name": "",
          "type": "address"
        }
      ],
      "stateMutability": "view",
      "type": "function"
    },
    {
      "inputs": [
        {
          "internalType": "address",
          "name": "from",
          "type": "address"
        },
        {
          "internalType": "address",
          "name": "to",
          "type": "address"
        },
        {
          "internalType": "uint256",
          "name": "tokenId",
          "type": "uint256"
        }
      ],
      "name": "safeTransferFrom",
      "outputs": [],
      "stateMutability": "nonpayable",
      "type": "function"
    },
    {
      "inputs": [
        {
          "internalType": "address",
          "name": "from",
          "type": "address"
        },
        {
          "internalType": "address",
          "name": "to",
          "type": "address"
        },
        {
          "internalType": "uint256",
          "name": "tokenId",
          "type": "uint256"
        },
        {
          "internalType": "bytes",
          "name": "_data",
          "type": "bytes"
        }
      ],
      "name": "safeTransferFrom",
      "outputs": [],
      "stateMutability": "nonpayable",
      "type": "function"
    },
    {
      "inputs": [
        {
          "internalType": "address",
          "name": "operator",
          "type": "address"
        },
        {
          "internalType": "bool",
          "name": "approved",
          "type": "bool"
        }
      ],
      "name": "setApprovalForAll",
      "outputs": [],
      "stateMutability": "nonpayable",
      "type": "function"
    },
    {
      "inputs": [
        {
          "internalType": "string",
          "name": "baseURI",
          "type": "string"
        }
      ],
      "name": "setBaseURI",
      "outputs": [],
      "stateMutability": "nonpayable",
      "type": "function"
    },
    {
      "inputs": [
        {
          "internalType": "uint256",
          "name": "tokenId",
          "type": "uint256"
        },
        {
          "internalType": "bool",
          "name": "staked",
          "type": "bool"
        }
      ],
      "name": "setStakeStatus",
      "outputs": [],
      "stateMutability": "nonpayable",
      "type": "function"
    },
    {
      "inputs": [
        {
          "internalType": "uint256",
          "name": "tokenId",
          "type": "uint256"
        },
        {
          "internalType": "enum CPNFT.NFTLevel",
          "name": "level",
          "type": "uint8"
        }
      ],
      "name": "setTokenLevel",
      "outputs": [],
      "stateMutability": "nonpayable",
      "type": "function"
    },
    {
      "inputs": [],
      "name": "symbol",
      "outputs": [
        {
          "internalType": "string",
          "name": "",
          "type": "string"
        }
      ],
      "stateMutability": "view",
      "type": "function"
    },
    {
      "inputs": [
        {
          "internalType": "uint256",
          "name": "tokenId",
          "type": "uint256"
        }
      ],
      "name": "tokenExists",
      "outputs": [
        {
          "internalType": "bool",
          "name": "",
          "type": "bool"
        }
      ],
      "stateMutability": "view",
      "type": "function"
    },
    {
      "inputs": [
        {
          "internalType": "uint256",
          "name": "tokenId",
          "type": "uint256"
        }
      ],
      "name": "tokenURI",
      "outputs": [
        {
          "internalType": "string",
          "name": "",
          "type": "string"
        }
      ],
      "stateMutability": "view",
      "type": "function"
    },
    {
      "inputs": [
        {
          "internalType": "address",
          "name": "from",
          "type": "address"
        },
        {
          "internalType": "address",
          "name": "to",
          "type": "address"
        },
        {
          "internalType": "uint256",
          "name": "tokenId",
          "type": "uint256"
        }
      ],
      "name": "transferFrom",
      "outputs": [],
      "stateMutability": "nonpayable",
      "type": "function"
    },
    {
      "inputs": [
        {
          "internalType": "address",
          "name": "newOwner",
          "type": "address"
        }
      ],
      "name": "transferOwnership",
      "outputs": [],
      "stateMutability": "nonpayable",
      "type": "function"
    }
  ],
  "bytecode": "0x60806040523461047f57612f498038038061001981610483565b928339810160608282031261047f5781516001600160401b03811161047f57816100449184016104a8565b60208301519092906001600160401b03811161047f57826100669183016104a8565b60408201519092906001600160401b03811161047f5761008692016104a8565b82516001600160401b0381116102ba575f54600181811c91168015610475575b602082101461029c57601f8111610413575b506020601f82116001146103b257819293945f926103a7575b50508160011b915f199060031b1c1916175f555b81516001600160401b0381116102ba57600154600181811c9116801561039d575b602082101461029c57601f811161033a575b50602092601f82116001146102d957928192935f926102ce575b50508160011b915f199060031b1c1916176001555b80516001600160401b0381116102ba57600254600181811c911680156102b0575b602082101461029c57601f8111610239575b50602091601f82116001146101d9579181925f926101ce575b50508160011b915f199060031b1c1916176002555b600480546001600160a01b031916331790556001600355604051612a4f90816104fa8239f35b015190505f80610193565b601f1982169260025f52805f20915f5b85811061022157508360019510610209575b505050811b016002556101a8565b01515f1960f88460031b161c191690555f80806101fb565b919260206001819286850151815501940192016101e9565b60025f527f405787fa12a823e0f2b7631cc41b3ba8828b3321ca811111fa75cd3aa3bb5ace601f830160051c81019160208410610292575b601f0160051c01905b818110610287575061017a565b5f815560010161027a565b9091508190610271565b634e487b7160e01b5f52602260045260245ffd5b90607f1690610168565b634e487b7160e01b5f52604160045260245ffd5b015190505f80610132565b601f1982169360015f52805f20915f5b868110610322575083600195961061030a575b505050811b01600155610147565b01515f1960f88460031b161c191690555f80806102fc565b919260206001819286850151815501940192016102e9565b60015f527fb10e2d527612073b26eecdfd717e6a320cf44b4afac2b0732d9fcbe2b7fa0cf6601f830160051c81019160208410610393575b601f0160051c01905b8181106103885750610118565b5f815560010161037b565b9091508190610372565b90607f1690610106565b015190505f806100d1565b601f198216905f8052805f20915f5b8181106103fb575095836001959697106103e3575b505050811b015f556100e5565b01515f1960f88460031b161c191690555f80806103d6565b9192602060018192868b0151815501940192016103c1565b5f80527f290decd9548b62a8d60345a988386fc84ba6bc95484008f6362f93160ef3e563601f830160051c8101916020841061046b575b601f0160051c01905b81811061046057506100b8565b5f8155600101610453565b909150819061044a565b90607f16906100a6565b5f80fd5b6040519190601f01601f191682016001600160401b038111838210176102ba57604052565b81601f8201121561047f578051906001600160401b0382116102ba576104d7601f8301601f1916602001610483565b928284526020838301011161047f57815f9260208093018386015e830101529056fe60806040526004361015610011575f80fd5b5f3560e01c8062923f9e146101c357806306fdde03146101be578063081812fc146101b957806308ad480b146101b4578063095ea7b3146101af57806323b872dd146101aa57806342842e0e146101a557806342966c68146101a057806355f804b31461019b57806356189236146101965780636352211e14610191578063691562a01461018c57806370a082311461018757806379c352a7146101825780638da5cb5b1461017d57806395d89b4114610178578063a22cb46514610173578063b818f9e41461016e578063b88d4fde14610169578063baa51f8614610164578063c87b56dd1461015f578063caa0f92a1461015a578063d011645c14610155578063dc8e92ea14610150578063e7b826241461014b578063e985e9c5146101465763f2fde38b14610141575f80fd5b6119b7565b611919565b61180e565b61168d565b611625565b6115aa565b611365565b611300565b61127a565b611157565b610ffe565b610f2c565b610edb565b610dfa565b610cce565b610c74565b610c38565b610bd2565b610a16565b6107bd565b610794565b61077b565b610562565b6103e2565b61037e565b61026b565b346102105760207ffffffffffffffffffffffffffffffffffffffffffffffffffffffffffffffffc360112610210576004355f526009602052602060ff60405f2054166040519015158152f35b5f80fd5b907fffffffffffffffffffffffffffffffffffffffffffffffffffffffffffffffe0601f602080948051918291828752018686015e5f8582860101520116010190565b906020610268928181520190610214565b90565b34610210575f7ffffffffffffffffffffffffffffffffffffffffffffffffffffffffffffffffc360112610210576040515f5f546102a881611ace565b808452906001811690811561033c57506001146102e0575b6102dc836102d081850382610960565b60405191829182610257565b0390f35b5f8080527f290decd9548b62a8d60345a988386fc84ba6bc95484008f6362f93160ef3e563939250905b808210610322575090915081016020016102d06102c0565b91926001816020925483858801015201910190929161030a565b7fffffffffffffffffffffffffffffffffffffffffffffffffffffffffffffff001660208086019190915291151560051b840190910191506102d090506102c0565b346102105760207ffffffffffffffffffffffffffffffffffffffffffffffffffffffffffffffffc3601126102105760206103ba600435611b1f565b73ffffffffffffffffffffffffffffffffffffffff60405191168152f35b6006111561021057565b346102105760407ffffffffffffffffffffffffffffffffffffffffffffffffffffffffffffffffc36011261021057600435602435610420816103d8565b61044373ffffffffffffffffffffffffffffffffffffffff600454163314611bdc565b815f52600960205261045b60ff60405f205416611c41565b815f52600b60205260ff60405f2054166104c0576104bb816104af7ff3a12011211dc86e9c6704718a339c980ffca05c6096d33c6579a86082b63272936104aa865f52600a60205260405f2090565b611ca6565b604051918291826115e5565b0390a2005b60846040517f08c379a000000000000000000000000000000000000000000000000000000000815260206004820152602360248201527f43616e6e6f74206368616e6765206c6576656c206f66207374616b656420746f60448201527f6b656e00000000000000000000000000000000000000000000000000000000006064820152fd5b73ffffffffffffffffffffffffffffffffffffffff81160361021057565b346102105760407ffffffffffffffffffffffffffffffffffffffffffffffffffffffffffffffffc3601126102105760043561059d81610544565b602435906105aa82611f3a565b73ffffffffffffffffffffffffffffffffffffffff81169073ffffffffffffffffffffffffffffffffffffffff8316928284146106d3576105f961064b92843314908115610671575b50611cdd565b61060b855f52600760205260405f2090565b9073ffffffffffffffffffffffffffffffffffffffff167fffffffffffffffffffffffff0000000000000000000000000000000000000000825416179055565b7f8c5be1e5ebec7d5bd14f71427d1e84f3dd0314c0f7b2291e5b200ac8c7c3b9255f80a4005b6106cd91506106c6906106a3339173ffffffffffffffffffffffffffffffffffffffff165f52600860205260405f2090565b9073ffffffffffffffffffffffffffffffffffffffff165f5260205260405f2090565b5460ff1690565b5f6105f3565b60646040517f08c379a000000000000000000000000000000000000000000000000000000000815260206004820152601960248201527f417070726f76616c20746f2063757272656e74206f776e6572000000000000006044820152fd5b7ffffffffffffffffffffffffffffffffffffffffffffffffffffffffffffffffc60609101126102105760043561076781610544565b9060243561077481610544565b9060443590565b346102105761079261078c36610731565b91611e58565b005b34610210576107926107a536610731565b90604051926107b5602085610960565b5f8452612279565b346102105760207ffffffffffffffffffffffffffffffffffffffffffffffffffffffffffffffffc3601126102105760043561081273ffffffffffffffffffffffffffffffffffffffff600454163314611bdc565b805f52600960205261082a60ff60405f205416611c41565b73ffffffffffffffffffffffffffffffffffffffff61084882611f3a565b61085183612725565b16805f52600660205260405f209081547fffffffffffffffffffffffffffffffffffffffffffffffffffffffffffffffff810190811161092e575f92556108cb6108a3845f52600560205260405f2090565b7fffffffffffffffffffffffff00000000000000000000000000000000000000008154169055565b6109086108e0845f52600960205260405f2090565b7fffffffffffffffffffffffffffffffffffffffffffffffffffffffffffffff008154169055565b7fddf252ad1be2c89b69c2b068fc378daa952ba7f163c4a11628f55a4df523b3ef8280a4005b611e90565b7f4e487b71000000000000000000000000000000000000000000000000000000005f52604160045260245ffd5b90601f7fffffffffffffffffffffffffffffffffffffffffffffffffffffffffffffffe0910116810190811067ffffffffffffffff8211176109a157604052565b610933565b67ffffffffffffffff81116109a157601f017fffffffffffffffffffffffffffffffffffffffffffffffffffffffffffffffe01660200190565b9291926109ec826109a6565b916109fa6040519384610960565b829481845281830111610210578281602093845f960137010152565b346102105760207ffffffffffffffffffffffffffffffffffffffffffffffffffffffffffffffffc3601126102105760043567ffffffffffffffff8111610210573660238201121561021057610a769036906024816004013591016109e0565b610a9973ffffffffffffffffffffffffffffffffffffffff600454163314611bdc565b805167ffffffffffffffff81116109a157610abe81610ab9600254611ace565b611eea565b602091601f8211600114610b1a57610b0a925f9183610b0f575b50507fffffffffffffffffffffffffffffffffffffffffffffffffffffffffffffffff8260011b9260031b1c19161790565b600255005b015190505f80610ad8565b60025f527fffffffffffffffffffffffffffffffffffffffffffffffffffffffffffffffe08216927f405787fa12a823e0f2b7631cc41b3ba8828b3321ca811111fa75cd3aa3bb5ace915f5b858110610bba57508360019510610b83575b505050811b01600255005b01517fffffffffffffffffffffffffffffffffffffffffffffffffffffffffffffffff60f88460031b161c191690555f8080610b78565b91926020600181928685015181550194019201610b66565b34610210575f7ffffffffffffffffffffffffffffffffffffffffffffffffffffffffffffffffc360112610210576003547fffffffffffffffffffffffffffffffffffffffffffffffffffffffffffffffff810190811161092e57602090604051908152f35b346102105760207ffffffffffffffffffffffffffffffffffffffffffffffffffffffffffffffffc3601126102105760206103ba600435611f3a565b346102105760407ffffffffffffffffffffffffffffffffffffffffffffffffffffffffffffffffc360112610210576020610cc6600435610cb481610544565b60243590610cc1826103d8565b611fe9565b604051908152f35b346102105760207ffffffffffffffffffffffffffffffffffffffffffffffffffffffffffffffffc3601126102105773ffffffffffffffffffffffffffffffffffffffff600435610d1e81610544565b168015610d45575f5260066020526102dc60405f2054604051918291829190602083019252565b60846040517f08c379a000000000000000000000000000000000000000000000000000000000815260206004820152602260248201527f42616c616e636520717565727920666f7220746865207a65726f20616464726560448201527f73730000000000000000000000000000000000000000000000000000000000006064820152fd5b9181601f840112156102105782359167ffffffffffffffff8311610210576020808501948460051b01011161021057565b346102105760407ffffffffffffffffffffffffffffffffffffffffffffffffffffffffffffffffc3601126102105760043567ffffffffffffffff811161021057610e49903690600401610dc9565b60243567ffffffffffffffff811161021057610e69903690600401610dc9565b90610e8d73ffffffffffffffffffffffffffffffffffffffff600454163314611bdc565b610e988284146121d7565b5f5b838110610ea357005b80610ed4610eb4600193878961223c565b35610ebe81610544565b610ec983878761223c565b3590610cc1826103d8565b5001610e9a565b34610210575f7ffffffffffffffffffffffffffffffffffffffffffffffffffffffffffffffffc36011261021057602073ffffffffffffffffffffffffffffffffffffffff60045416604051908152f35b34610210575f7ffffffffffffffffffffffffffffffffffffffffffffffffffffffffffffffffc360112610210576040515f600154610f6a81611ace565b808452906001811690811561033c5750600114610f91576102dc836102d081850382610960565b91905060015f527fb10e2d527612073b26eecdfd717e6a320cf44b4afac2b0732d9fcbe2b7fa0cf6915f905b808210610fd5575090915081016020016102d06102c0565b919260018160209254838588010152019101909291610fbd565b60243590811515820361021057565b346102105760407ffffffffffffffffffffffffffffffffffffffffffffffffffffffffffffffffc3601126102105760043561103981610544565b611041610fef565b73ffffffffffffffffffffffffffffffffffffffff8216913383146110f957816110976110c792335f52600860205260405f209073ffffffffffffffffffffffffffffffffffffffff165f5260205260405f2090565b9060ff7fffffffffffffffffffffffffffffffffffffffffffffffffffffffffffffff0083541691151516179055565b604051901515815233907f17307eab39ab6107e8899845ad3d59bd9653f200f220920489ca2b5937696c3190602090a3005b60646040517f08c379a000000000000000000000000000000000000000000000000000000000815260206004820152601160248201527f417070726f766520746f2063616c6c65720000000000000000000000000000006044820152fd5b346102105760607ffffffffffffffffffffffffffffffffffffffffffffffffffffffffffffffffc3601126102105760043567ffffffffffffffff8111610210576111a6903690600401610dc9565b60243567ffffffffffffffff8111610210576111c6903690600401610dc9565b919060443567ffffffffffffffff8111610210576111e8903690600401610dc9565b9461120c73ffffffffffffffffffffffffffffffffffffffff600454163314611bdc565b84841480611271575b61121e906121d7565b5f5b86811061122957005b8061126b61123a600193888661223c565b3561124481610544565b61124f838a8961223c565b3561125981610544565b611264848c8961223c565b3591611e58565b01611220565b50848614611215565b346102105760807ffffffffffffffffffffffffffffffffffffffffffffffffffffffffffffffffc360112610210576004356112b581610544565b602435906112c282610544565b6044356064359267ffffffffffffffff84116102105736602385011215610210576112fa6107929436906024816004013591016109e0565b92612279565b346102105760207ffffffffffffffffffffffffffffffffffffffffffffffffffffffffffffffffc36011261021057600435805f52600960205261134a60ff60405f205416611c41565b5f52600b602052602060ff60405f2054166040519015158152f35b346102105760207ffffffffffffffffffffffffffffffffffffffffffffffffffffffffffffffffc36011261021057600435805f5260096020526113af60ff60405f205416611c41565b80815f927a184f03e93ff9f4daa797ed6e38ed64bf6a1f01000000000000000081101561157f575b50806d04ee2d6d415b85acef8100000000600a921015611563575b662386f26fc1000081101561154e575b6305f5e10081101561153c575b61271081101561152c575b606481101561151d575b1015611512575b6114937fffffffffffffffffffffffffffffffffffffffffffffffffffffffffffffffff602161145d6001860161279d565b948501015b01917f3031323334353637383961626364656600000000000000000000000000000000600a82061a8353600a900490565b9081156114c557611493907fffffffffffffffffffffffffffffffffffffffffffffffffffffffffffffffff90611462565b6040516102dc906102d0816114e6876114e060208401612342565b906123e7565b037fffffffffffffffffffffffffffffffffffffffffffffffffffffffffffffffe08101835282610960565b60019091019061142b565b60029060649004930192611424565b600490612710900493019261141a565b6008906305f5e100900493019261140f565b601090662386f26fc100009004930192611402565b6020906d04ee2d6d415b85acef810000000090049301926113f2565b604093507a184f03e93ff9f4daa797ed6e38ed64bf6a1f01000000000000000090049050600a6113d7565b34610210575f7ffffffffffffffffffffffffffffffffffffffffffffffffffffffffffffffffc360112610210576020600354604051908152f35b9190602083019260068210156115f85752565b7f4e487b71000000000000000000000000000000000000000000000000000000005f52602160045260245ffd5b346102105760207ffffffffffffffffffffffffffffffffffffffffffffffffffffffffffffffffc36011261021057600435805f52600960205261166f60ff60405f205416611c41565b5f52600a6020526102dc60ff60405f205416604051918291826115e5565b346102105760207ffffffffffffffffffffffffffffffffffffffffffffffffffffffffffffffffc3601126102105760043567ffffffffffffffff8111610210576116dc903690600401610dc9565b6116ff73ffffffffffffffffffffffffffffffffffffffff600454163314611bdc565b5f5b81811061170a57005b61171581838561223c565b359061173a3373ffffffffffffffffffffffffffffffffffffffff6004541614611bdc565b815f52600960205261175260ff60405f205416611c41565b73ffffffffffffffffffffffffffffffffffffffff61177083611f3a565b61177984612725565b1691825f52600660205260405f208054937fffffffffffffffffffffffffffffffffffffffffffffffffffffffffffffffff850194851161092e576001945f92556117cf6108a3845f52600560205260405f2090565b6117e46108e0845f52600960205260405f2090565b7fddf252ad1be2c89b69c2b068fc378daa952ba7f163c4a11628f55a4df523b3ef8280a401611701565b346102105760407ffffffffffffffffffffffffffffffffffffffffffffffffffffffffffffffffc36011261021057600435611848610fef565b336118bb5760207f9b5f059a05a4b3deddf04e14f11520a9e0337d12b80a3f3b611a23b62b03e27891835f52600b82526118b08160405f209060ff7fffffffffffffffffffffffffffffffffffffffffffffffffffffffffffffff0083541691151516179055565b6040519015158152a2005b60646040517f08c379a000000000000000000000000000000000000000000000000000000000815260206004820152601e60248201527f4f6e6c79207374616b696e6720636f6e74726163742063616e2063616c6c00006044820152fd5b346102105760407ffffffffffffffffffffffffffffffffffffffffffffffffffffffffffffffffc36011261021057602060ff6119ab60043561195b81610544565b73ffffffffffffffffffffffffffffffffffffffff6024359161197d83610544565b165f526008845260405f209073ffffffffffffffffffffffffffffffffffffffff165f5260205260405f2090565b54166040519015158152f35b346102105760207ffffffffffffffffffffffffffffffffffffffffffffffffffffffffffffffffc360112610210576004356119f281610544565b6004549073ffffffffffffffffffffffffffffffffffffffff80831691611a1a338414611bdc565b16918215611a7057827fffffffffffffffffffffffff0000000000000000000000000000000000000000927f8be0079c531659141344cd1fd0a4f28419497f9722a3daafe3b4186f6b6457e05f80a31617600455005b60646040517f08c379a000000000000000000000000000000000000000000000000000000000815260206004820152601d60248201527f4e6577206f776e657220697320746865207a65726f20616464726573730000006044820152fd5b90600182811c92168015611b15575b6020831014611ae857565b7f4e487b71000000000000000000000000000000000000000000000000000000005f52602260045260245ffd5b91607f1691611add565b805f52600960205260ff60405f20541615611b59575f52600760205273ffffffffffffffffffffffffffffffffffffffff60405f20541690565b60846040517f08c379a0000000000000000000000000000000000000000000000000000000008152602060048201526024808201527f417070726f76656420717565727920666f72206e6f6e6578697374656e74207460448201527f6f6b656e000000000000000000000000000000000000000000000000000000006064820152fd5b15611be357565b60646040517f08c379a000000000000000000000000000000000000000000000000000000000815260206004820152601760248201527f43616c6c6572206973206e6f7420746865206f776e65720000000000000000006044820152fd5b15611c4857565b60646040517f08c379a000000000000000000000000000000000000000000000000000000000815260206004820152601460248201527f546f6b656e20646f6573206e6f742065786973740000000000000000000000006044820152fd5b9060068110156115f85760ff7fffffffffffffffffffffffffffffffffffffffffffffffffffffffffffffff008354169116179055565b15611ce457565b60846040517f08c379a000000000000000000000000000000000000000000000000000000000815260206004820152603060248201527f417070726f76652063616c6c6572206973206e6f74206f776e6572206e6f722060448201527f617070726f76656420666f7220616c6c000000000000000000000000000000006064820152fd5b15611d6f57565b60646040517f08c379a000000000000000000000000000000000000000000000000000000000815260206004820152601c60248201527f43616e6e6f74207472616e73666572207374616b656420746f6b656e000000006044820152fd5b15611dd457565b60846040517f08c379a000000000000000000000000000000000000000000000000000000000815260206004820152602960248201527f5472616e736665722063616c6c6572206973206e6f74206f776e6572206e6f7260448201527f20617070726f76656400000000000000000000000000000000000000000000006064820152fd5b90611e8e9291825f52600b602052611e7760ff60405f20541615611d68565b611e89611e8484336123f9565b611dcd565b612574565b565b7f4e487b71000000000000000000000000000000000000000000000000000000005f52601160045260245ffd5b907fffffffffffffffffffffffffffffffffffffffffffffffffffffffffffffffff820191821161092e57565b601f8111611ef6575050565b60025f5260205f20906020601f840160051c83019310611f30575b601f0160051c01905b818110611f25575050565b5f8155600101611f1a565b9091508190611f11565b5f52600560205273ffffffffffffffffffffffffffffffffffffffff60405f2054168015611f655790565b60846040517f08c379a000000000000000000000000000000000000000000000000000000000815260206004820152602160248201527f4f776e657220717565727920666f72206e6f6e6578697374656e7420746f6b6560448201527f6e000000000000000000000000000000000000000000000000000000000000006064820152fd5b61200c73ffffffffffffffffffffffffffffffffffffffff600454163314611bdc565b73ffffffffffffffffffffffffffffffffffffffff8116801561213e576120b1917ff3a12011211dc86e9c6704718a339c980ffca05c6096d33c6579a86082b6327291612138600354958695869461206b6120668761219c565b600355565b6120938173ffffffffffffffffffffffffffffffffffffffff165f52600660205260405f2090565b61209d81546121c9565b905561060b865f52600560205260405f2090565b6120f16120c6855f52600960205260405f2090565b60017fffffffffffffffffffffffffffffffffffffffffffffffffffffffffffffff00825416179055565b612107816104aa865f52600a60205260405f2090565b6040519384935f7fddf252ad1be2c89b69c2b068fc378daa952ba7f163c4a11628f55a4df523b3ef8180a4826115e5565b0390a290565b60646040517f08c379a000000000000000000000000000000000000000000000000000000000815260206004820152601860248201527f4d696e7420746f20746865207a65726f206164647265737300000000000000006044820152fd5b7fffffffffffffffffffffffffffffffffffffffffffffffffffffffffffffffff811461092e5760010190565b906001820180921161092e57565b156121de57565b60646040517f08c379a000000000000000000000000000000000000000000000000000000000815260206004820152601660248201527f417272617973206c656e677468206d69736d61746368000000000000000000006044820152fd5b919081101561224c5760051b0190565b7f4e487b71000000000000000000000000000000000000000000000000000000005f52603260045260245ffd5b906122b6939291825f52600b60205261229960ff60405f20541615611d68565b6122a6611e8484336123f9565b6122b1838383612574565b61288e565b156122bd57565b6040517f08c379a000000000000000000000000000000000000000000000000000000000815260206004820152602a60248201527f5472616e7366657220746f206e6f6e204552433732315265636569766572206960448201527f6d706c656d656e746572000000000000000000000000000000000000000000006064820152608490fd5b6002545f929161235182611ace565b91600181169081156123b75750600114612369575050565b60025f90815292935090917f405787fa12a823e0f2b7631cc41b3ba8828b3321ca811111fa75cd3aa3bb5ace5b8382106123a35750500190565b600181602092548486015201910190612396565b7fffffffffffffffffffffffffffffffffffffffffffffffffffffffffffffff0016825250811515909102019150565b805191908290602001825e015f815290565b815f52600960205260ff60405f205416156124f15761244961243060045473ffffffffffffffffffffffffffffffffffffffff1690565b73ffffffffffffffffffffffffffffffffffffffff1690565b73ffffffffffffffffffffffffffffffffffffffff82169081146124e95761247083611f3a565b9073ffffffffffffffffffffffffffffffffffffffff821681149384156124d0575b5050821561249f57505090565b6102689250906106a36106c69273ffffffffffffffffffffffffffffffffffffffff165f52600860205260405f2090565b6124e09192945061243090611b1f565b14915f80612492565b505050600190565b60846040517f08c379a0000000000000000000000000000000000000000000000000000000008152602060048201526024808201527f4f70657261746f7220717565727920666f72206e6f6e6578697374656e74207460448201527f6f6b656e000000000000000000000000000000000000000000000000000000006064820152fd5b73ffffffffffffffffffffffffffffffffffffffff9061259384611f3a565b82821692839116036126c75773ffffffffffffffffffffffffffffffffffffffff8316928315612669576125f1612643926125cd87612725565b73ffffffffffffffffffffffffffffffffffffffff165f52600660205260405f2090565b6125fb8154611ebd565b90556126258173ffffffffffffffffffffffffffffffffffffffff165f52600660205260405f2090565b61262f81546121c9565b905561060b855f52600560205260405f2090565b7fddf252ad1be2c89b69c2b068fc378daa952ba7f163c4a11628f55a4df523b3ef5f80a4565b60646040517f08c379a000000000000000000000000000000000000000000000000000000000815260206004820152601c60248201527f5472616e7366657220746f20746865207a65726f2061646472657373000000006044820152fd5b60646040517f08c379a000000000000000000000000000000000000000000000000000000000815260206004820152601d60248201527f5472616e736665722066726f6d20696e636f7272656374206f776e65720000006044820152fd5b805f52600760205260405f207fffffffffffffffffffffffff000000000000000000000000000000000000000081541690555f73ffffffffffffffffffffffffffffffffffffffff61277683611f3a565b167f8c5be1e5ebec7d5bd14f71427d1e84f3dd0314c0f7b2291e5b200ac8c7c3b9258280a4565b906127a7826109a6565b6127b46040519182610960565b8281527fffffffffffffffffffffffffffffffffffffffffffffffffffffffffffffffe06127e282946109a6565b0190602036910137565b9081602091031261021057517fffffffff00000000000000000000000000000000000000000000000000000000811681036102105790565b909273ffffffffffffffffffffffffffffffffffffffff60809381610268979616845216602083015260408201528160608201520190610214565b3d15612889573d90612870826109a6565b9161287e6040519384610960565b82523d5f602084013e565b606090565b919290803b15612a10576128ec935f73ffffffffffffffffffffffffffffffffffffffff602095604051978896879586937f150b7a020000000000000000000000000000000000000000000000000000000085523360048601612824565b0393165af15f91816129df575b506129985761290661285f565b80519081612993576040517f08c379a000000000000000000000000000000000000000000000000000000000815260206004820152602a60248201527f5472616e7366657220746f206e6f6e204552433732315265636569766572206960448201527f6d706c656d656e746572000000000000000000000000000000000000000000006064820152608490fd5b602001fd5b7fffffffff00000000000000000000000000000000000000000000000000000000167f150b7a02000000000000000000000000000000000000000000000000000000001490565b612a0291925060203d602011612a09575b6129fa8183610960565b8101906127ec565b905f6128f9565b503d6129f0565b5050505060019056fea2646970667358221220518eaacb7671e785d392e238d7399a60d2f06847df785b4e0dcbf6d247b75ff164736f6c634300081c0033",
  "linkReferences": {},
  "deployedLinkReferences": {}
}