{
  "_format": "hh-sol-artifact-1",
  "contractName": "Payment",
  "sourceName": "contracts/Payment.sol",
  "abi": [
    {
      "inputs": [],
      "stateMutability": "nonpayable",
      "type": "constructor"
    },
    {
      "inputs": [],
      "name": "InsufficientBalance",
      "type": "error"
    },
    {
      "inputs": [],
      "name": "InvalidAmount",
      "type": "error"
    },
    {
      "inputs": [],
      "name": "InvalidOwner",
      "type": "error"
    },
    {
      "inputs": [],
      "name": "InvalidToken",
      "type": "error"
    },
    {
      "inputs": [],
      "name": "OnlyOwner",
      "type": "error"
    },
    {
      "inputs": [],
      "name": "OrderAlreadyPaid",
      "type": "error"
    },
    {
      "inputs": [],
      "name": "ReentrancyGuardReentrantCall",
      "type": "error"
    },
    {
      "inputs": [],
      "name": "TokenNotAllowed",
      "type": "error"
    },
    {
      "inputs": [],
      "name": "TransferFailed",
      "type": "error"
    },
    {
      "anonymous": false,
      "inputs": [
        {
          "indexed": true,
          "internalType": "address",
          "name": "owner",
          "type": "address"
        },
        {
          "indexed": false,
          "internalType": "uint256",
          "name": "amount",
          "type": "uint256"
        }
      ],
      "name": "ETHWithdrawn",
      "type": "event"
    },
    {
      "anonymous": false,
      "inputs": [
        {
          "indexed": true,
          "internalType": "address",
          "name": "previousOwner",
          "type": "address"
        },
        {
          "indexed": true,
          "internalType": "address",
          "name": "newOwner",
          "type": "address"
        }
      ],
      "name": "OwnershipTransferred",
      "type": "event"
    },
    {
      "anonymous": false,
      "inputs": [
        {
          "indexed": true,
          "internalType": "uint256",
          "name": "orderId",
          "type": "uint256"
        },
        {
          "indexed": true,
          "internalType": "address",
          "name": "payer",
          "type": "address"
        },
        {
          "indexed": true,
          "internalType": "address",
          "name": "token",
          "type": "address"
        },
        {
          "indexed": false,
          "internalType": "uint256",
          "name": "amount",
          "type": "uint256"
        },
        {
          "indexed": false,
          "internalType": "uint256",
          "name": "timestamp",
          "type": "uint256"
        }
      ],
      "name": "PaymentMade",
      "type": "event"
    },
    {
      "anonymous": false,
      "inputs": [
        {
          "indexed": true,
          "internalType": "address",
          "name": "token",
          "type": "address"
        }
      ],
      "name": "TokenAdded",
      "type": "event"
    },
    {
      "anonymous": false,
      "inputs": [
        {
          "indexed": true,
          "internalType": "address",
          "name": "token",
          "type": "address"
        }
      ],
      "name": "TokenRemoved",
      "type": "event"
    },
    {
      "anonymous": false,
      "inputs": [
        {
          "indexed": true,
          "internalType": "address",
          "name": "owner",
          "type": "address"
        },
        {
          "indexed": true,
          "internalType": "address",
          "name": "token",
          "type": "address"
        },
        {
          "indexed": false,
          "internalType": "uint256",
          "name": "amount",
          "type": "uint256"
        }
      ],
      "name": "TokenWithdrawn",
      "type": "event"
    },
    {
      "inputs": [
        {
          "internalType": "address",
          "name": "token",
          "type": "address"
        }
      ],
      "name": "addAllowedToken",
      "outputs": [],
      "stateMutability": "nonpayable",
      "type": "function"
    },
    {
      "inputs": [
        {
          "internalType": "address",
          "name": "",
          "type": "address"
        }
      ],
      "name": "allowedTokens",
      "outputs": [
        {
          "internalType": "bool",
          "name": "",
          "type": "bool"
        }
      ],
      "stateMutability": "view",
      "type": "function"
    },
    {
      "inputs": [],
      "name": "getETHBalance",
      "outputs": [
        {
          "internalType": "uint256",
          "name": "",
          "type": "uint256"
        }
      ],
      "stateMutability": "view",
      "type": "function"
    },
    {
      "inputs": [
        {
          "internalType": "uint256",
          "name": "orderId",
          "type": "uint256"
        }
      ],
      "name": "getPayment",
      "outputs": [
        {
          "components": [
            {
              "internalType": "uint256",
              "name": "orderId",
              "type": "uint256"
            },
            {
              "internalType": "address",
              "name": "payer",
              "type": "address"
            },
            {
              "internalType": "address",
              "name": "token",
              "type": "address"
            },
            {
              "internalType": "uint256",
              "name": "amount",
              "type": "uint256"
            },
            {
              "internalType": "uint256",
              "name": "timestamp",
              "type": "uint256"
            }
          ],
          "internalType": "struct Payment.PaymentInfo",
          "name": "",
          "type": "tuple"
        }
      ],
      "stateMutability": "view",
      "type": "function"
    },
    {
      "inputs": [
        {
          "internalType": "address",
          "name": "token",
          "type": "address"
        }
      ],
      "name": "getTokenBalance",
      "outputs": [
        {
          "internalType": "uint256",
          "name": "",
          "type": "uint256"
        }
      ],
      "stateMutability": "view",
      "type": "function"
    },
    {
      "inputs": [
        {
          "internalType": "uint256",
          "name": "orderId",
          "type": "uint256"
        }
      ],
      "name": "isOrderPaid",
      "outputs": [
        {
          "internalType": "bool",
          "name": "",
          "type": "bool"
        }
      ],
      "stateMutability": "view",
      "type": "function"
    },
    {
      "inputs": [
        {
          "internalType": "address",
          "name": "token",
          "type": "address"
        }
      ],
      "name": "isTokenAllowed",
      "outputs": [
        {
          "internalType": "bool",
          "name": "",
          "type": "bool"
        }
      ],
      "stateMutability": "view",
      "type": "function"
    },
    {
      "inputs": [],
      "name": "owner",
      "outputs": [
        {
          "internalType": "address",
          "name": "",
          "type": "address"
        }
      ],
      "stateMutability": "view",
      "type": "function"
    },
    {
      "inputs": [
        {
          "internalType": "uint256",
          "name": "orderId",
          "type": "uint256"
        },
        {
          "internalType": "address",
          "name": "token",
          "type": "address"
        },
        {
          "internalType": "uint256",
          "name": "amount",
          "type": "uint256"
        }
      ],
      "name": "pay",
      "outputs": [],
      "stateMutability": "payable",
      "type": "function"
    },
    {
      "inputs": [
        {
          "internalType": "uint256",
          "name": "",
          "type": "uint256"
        }
      ],
      "name": "payments",
      "outputs": [
        {
          "internalType": "uint256",
          "name": "orderId",
          "type": "uint256"
        },
        {
          "internalType": "address",
          "name": "payer",
          "type": "address"
        },
        {
          "internalType": "address",
          "name": "token",
          "type": "address"
        },
        {
          "internalType": "uint256",
          "name": "amount",
          "type": "uint256"
        },
        {
          "internalType": "uint256",
          "name": "timestamp",
          "type": "uint256"
        }
      ],
      "stateMutability": "view",
      "type": "function"
    },
    {
      "inputs": [
        {
          "internalType": "address",
          "name": "token",
          "type": "address"
        }
      ],
      "name": "removeAllowedToken",
      "outputs": [],
      "stateMutability": "nonpayable",
      "type": "function"
    },
    {
      "inputs": [
        {
          "internalType": "address",
          "name": "newOwner",
          "type": "address"
        }
      ],
      "name": "transferOwnership",
      "outputs": [],
      "stateMutability": "nonpayable",
      "type": "function"
    },
    {
      "inputs": [],
      "name": "withdrawAllETH",
      "outputs": [],
      "stateMutability": "nonpayable",
      "type": "function"
    },
    {
      "inputs": [
        {
          "internalType": "address",
          "name": "token",
          "type": "address"
        }
      ],
      "name": "withdrawAllTokens",
      "outputs": [],
      "stateMutability": "nonpayable",
      "type": "function"
    },
    {
      "inputs": [
        {
          "internalType": "uint256",
          "name": "amount",
          "type": "uint256"
        }
      ],
      "name": "withdrawETH",
      "outputs": [],
      "stateMutability": "nonpayable",
      "type": "function"
    },
    {
      "inputs": [
        {
          "internalType": "address",
          "name": "token",
          "type": "address"
        },
        {
          "internalType": "uint256",
          "name": "amount",
          "type": "uint256"
        }
      ],
      "name": "withdrawToken",
      "outputs": [],
      "stateMutability": "nonpayable",
      "type": "function"
    }
  ],
  "bytecode": "0x60808060405234608257600280546001600160a01b031916331790555f808052600160208190527fa6eef7e35abe7026729641147f7915573c7e97b47efa546f5f6e3230263bcb49805460ff191690911790557f784c8f4dbf0ffedd6e72c76501c545a70f8b203b30a26ce542bf92ba87c248a48180a26110d690816100878239f35b5f80fdfe60806040526004361015610011575f80fd5b5f3560e01c80630313766f14610bae5780633280a83614610acb5780633aecd0e314610a825780634178617f146109bb5780636e9472981461098257806387d81789146108e35780638da5cb5b1461089257806390386bbf1461082457806390469a9d1461075a5780639e281a9814610606578063a84a357c146105a4578063a878aee614610379578063e744092e146100c9578063f14210a614610249578063f2fde38b146101355763f9eaee0d146100c9575f80fd5b346101315760207ffffffffffffffffffffffffffffffffffffffffffffffffffffffffffffffffc3601126101315773ffffffffffffffffffffffffffffffffffffffff610115610e72565b165f526001602052602060ff60405f2054166040519015158152f35b5f80fd5b346101315760207ffffffffffffffffffffffffffffffffffffffffffffffffffffffffffffffffc3601126101315761016c610e72565b6002549073ffffffffffffffffffffffffffffffffffffffff8216908133036102215773ffffffffffffffffffffffffffffffffffffffff169182156101f9577fffffffffffffffffffffffff00000000000000000000000000000000000000001682176002557f8be0079c531659141344cd1fd0a4f28419497f9722a3daafe3b4186f6b6457e05f80a3005b7f49e27cff000000000000000000000000000000000000000000000000000000005f5260045ffd5b7f5fc483c5000000000000000000000000000000000000000000000000000000005f5260045ffd5b346101315760207ffffffffffffffffffffffffffffffffffffffffffffffffffffffffffffffffc3601126101315760043573ffffffffffffffffffffffffffffffffffffffff60025416803303610221576102a361102c565b478211610351575f80808481945af16102ba610fcf565b5015610329577f94b2de810873337ed265c5f8cf98c9cffefa06b8607f9a2f1fbaebdfbcfbef1c602073ffffffffffffffffffffffffffffffffffffffff6002541692604051908152a25f7f9b779b17422d0df92223018b32b4d1fa46e071723d6817e2486d003becc55f005d005b7f90b8ec18000000000000000000000000000000000000000000000000000000005f5260045ffd5b7ff4d678b8000000000000000000000000000000000000000000000000000000005f5260045ffd5b346101315760207ffffffffffffffffffffffffffffffffffffffffffffffffffffffffffffffffc360112610131576103b0610e72565b73ffffffffffffffffffffffffffffffffffffffff60025416908133036102215773ffffffffffffffffffffffffffffffffffffffff906103ef61102c565b1690811561057c57604051907f70a08231000000000000000000000000000000000000000000000000000000008252306004830152602082602481865afa91821561053d575f92610548575b508115610351576040517fa9059cbb00000000000000000000000000000000000000000000000000000000815273ffffffffffffffffffffffffffffffffffffffff90911660048201526024810182905260208180604481015b03815f875af1801561053d57610510575b507f8210728e7c071f615b840ee026032693858fbcd5e5359e67e438c890f59e5620602073ffffffffffffffffffffffffffffffffffffffff6002541692604051908152a35f7f9b779b17422d0df92223018b32b4d1fa46e071723d6817e2486d003becc55f005d005b6105319060203d602011610536575b6105298183610ede565b810190610f1f565b6104a6565b503d61051f565b6040513d5f823e3d90fd5b9091506020813d602011610574575b8161056460209383610ede565b810103126101315751908361043b565b3d9150610557565b7fc1ab6dc1000000000000000000000000000000000000000000000000000000005f5260045ffd5b346101315760207ffffffffffffffffffffffffffffffffffffffffffffffffffffffffffffffffc360112610131576004355f525f602052602073ffffffffffffffffffffffffffffffffffffffff600160405f200154161515604051908152f35b346101315760407ffffffffffffffffffffffffffffffffffffffffffffffffffffffffffffffffc3601126101315761063d610e72565b60243573ffffffffffffffffffffffffffffffffffffffff60025416918233036102215773ffffffffffffffffffffffffffffffffffffffff9061067f61102c565b1691821561057c576040517f70a08231000000000000000000000000000000000000000000000000000000008152306004820152602081602481875afa90811561053d575f91610728575b508211610351576040517fa9059cbb00000000000000000000000000000000000000000000000000000000815273ffffffffffffffffffffffffffffffffffffffff9091166004820152602481018290526020818060448101610495565b90506020813d602011610752575b8161074360209383610ede565b810103126101315751846106ca565b3d9150610736565b346101315760207ffffffffffffffffffffffffffffffffffffffffffffffffffffffffffffffffc36011261013157610791610e72565b73ffffffffffffffffffffffffffffffffffffffff6002541633036102215773ffffffffffffffffffffffffffffffffffffffff16801561057c57805f52600160205260405f207fffffffffffffffffffffffffffffffffffffffffffffffffffffffffffffff0081541690557f4c910b69fe65a61f7531b9c5042b2329ca7179c77290aa7e2eb3afa3c8511fd35f80a2005b34610131575f7ffffffffffffffffffffffffffffffffffffffffffffffffffffffffffffffffc3601126101315773ffffffffffffffffffffffffffffffffffffffff600254168033036102215761087a61102c565b47908115610351575f80808481945af16102ba610fcf565b34610131575f7ffffffffffffffffffffffffffffffffffffffffffffffffffffffffffffffffc36011261013157602073ffffffffffffffffffffffffffffffffffffffff60025416604051908152f35b346101315760207ffffffffffffffffffffffffffffffffffffffffffffffffffffffffffffffffc360112610131576004355f525f60205260a060405f2080549073ffffffffffffffffffffffffffffffffffffffff6001820154169073ffffffffffffffffffffffffffffffffffffffff60028201541660046003830154920154926040519485526020850152604084015260608301526080820152f35b34610131575f7ffffffffffffffffffffffffffffffffffffffffffffffffffffffffffffffffc36011261013157602047604051908152f35b346101315760207ffffffffffffffffffffffffffffffffffffffffffffffffffffffffffffffffc360112610131576109f2610e72565b73ffffffffffffffffffffffffffffffffffffffff6002541633036102215773ffffffffffffffffffffffffffffffffffffffff16805f52600160205260405f2060017fffffffffffffffffffffffffffffffffffffffffffffffffffffffffffffff008254161790557f784c8f4dbf0ffedd6e72c76501c545a70f8b203b30a26ce542bf92ba87c248a45f80a2005b346101315760207ffffffffffffffffffffffffffffffffffffffffffffffffffffffffffffffffc360112610131576020610ac3610abe610e72565b610f37565b604051908152f35b346101315760207ffffffffffffffffffffffffffffffffffffffffffffffffffffffffffffffffc360112610131575f6080604051610b0981610e95565b82815282602082015282604082015282606082015201526004355f525f60205260a060405f20604051610b3b81610e95565b81549182825273ffffffffffffffffffffffffffffffffffffffff8060018301541660208401908152818060028501541691604086019283526080600460038701549660608901978852015496019586526040519687525116602086015251166040840152516060830152516080820152f35b60607ffffffffffffffffffffffffffffffffffffffffffffffffffffffffffffffffc360112610131576004356024359073ffffffffffffffffffffffffffffffffffffffff82168092036101315760443590610c0961102c565b825f52600160205260ff60405f20541615610e4a57805f525f60205273ffffffffffffffffffffffffffffffffffffffff600160405f20015416610e22578115610d835782610dab57813403610d83575b604051610c6681610e95565b8181526004602082013381526040830186815273ffffffffffffffffffffffffffffffffffffffff6060850191878352816080870194428652885f525f60205260405f20975188555116826001880191167fffffffffffffffffffffffff0000000000000000000000000000000000000000825416179055511673ffffffffffffffffffffffffffffffffffffffff6002860191167fffffffffffffffffffffffff0000000000000000000000000000000000000000825416179055516003840155519101556040519182524260208301527f32aced27dfd49efcd31ceb0567a1ef533d2ab1481334c3f316047bf16fe1c8e860403393a45f7f9b779b17422d0df92223018b32b4d1fa46e071723d6817e2486d003becc55f005d005b7f2c5211c6000000000000000000000000000000000000000000000000000000005f5260045ffd5b34610d83576040517f23b872dd0000000000000000000000000000000000000000000000000000000081523360048201523060248201528260448201526020816064815f885af1801561053d57610e03575b50610c5a565b610e1b9060203d602011610536576105298183610ede565b5083610dfd565b7f7f61b868000000000000000000000000000000000000000000000000000000005f5260045ffd5b7fa29c4986000000000000000000000000000000000000000000000000000000005f5260045ffd5b6004359073ffffffffffffffffffffffffffffffffffffffff8216820361013157565b60a0810190811067ffffffffffffffff821117610eb157604052565b7f4e487b71000000000000000000000000000000000000000000000000000000005f52604160045260245ffd5b90601f7fffffffffffffffffffffffffffffffffffffffffffffffffffffffffffffffe0910116810190811067ffffffffffffffff821117610eb157604052565b90816020910312610131575180151581036101315790565b73ffffffffffffffffffffffffffffffffffffffff168015610fca576020602491604051928380927f70a082310000000000000000000000000000000000000000000000000000000082523060048301525afa90811561053d575f91610f9b575090565b90506020813d602011610fc2575b81610fb660209383610ede565b81010312610131575190565b3d9150610fa9565b504790565b3d15611027573d9067ffffffffffffffff8211610eb1576040519161101c60207fffffffffffffffffffffffffffffffffffffffffffffffffffffffffffffffe0601f8401160184610ede565b82523d5f602084013e565b606090565b7f9b779b17422d0df92223018b32b4d1fa46e071723d6817e2486d003becc55f005c6110785760017f9b779b17422d0df92223018b32b4d1fa46e071723d6817e2486d003becc55f005d565b7f3ee5aeb5000000000000000000000000000000000000000000000000000000005f5260045ffdfea2646970667358221220554e4eed5ccc934978700c82959eab75d119a7879704f54cb7a22fed30f0231164736f6c634300081c0033",
  "linkReferences": {},
  "deployedLinkReferences": {}
}