{
  "address": "0x29aAD71f97Da6AA0F4096cfd50DA395eAa18D964",
  "abi": [
    {
      "inputs": [],
      "name": "ReentrancyGuardReentrantCall",
      "type": "error"
    },
    {
      "inputs": [
        {
          "internalType": "address",
          "name": "token",
          "type": "address"
        }
      ],
      "name": "SafeERC20FailedOperation",
      "type": "error"
    },
    {
      "anonymous": false,
      "inputs": [
        {
          "indexed": true,
          "internalType": "address",
          "name": "nftContract",
          "type": "address"
        },
        {
          "indexed": true,
          "internalType": "address",
          "name": "from",
          "type": "address"
        },
        {
          "indexed": false,
          "internalType": "uint256[]",
          "name": "tokenIds",
          "type": "uint256[]"
        },
        {
          "indexed": false,
          "internalType": "address[]",
          "name": "recipients",
          "type": "address[]"
        }
      ],
      "name": "BatchNFTTransfer",
      "type": "event"
    },
    {
      "anonymous": false,
      "inputs": [
        {
          "indexed": true,
          "internalType": "address",
          "name": "tokenContract",
          "type": "address"
        },
        {
          "indexed": true,
          "internalType": "address",
          "name": "from",
          "type": "address"
        },
        {
          "indexed": false,
          "internalType": "uint256",
          "name": "totalAmount",
          "type": "uint256"
        },
        {
          "indexed": false,
          "internalType": "address[]",
          "name": "recipients",
          "type": "address[]"
        }
      ],
      "name": "BatchTokenTransfer",
      "type": "event"
    },
    {
      "anonymous": false,
      "inputs": [
        {
          "indexed": true,
          "internalType": "address",
          "name": "nftContract",
          "type": "address"
        },
        {
          "indexed": true,
          "internalType": "address",
          "name": "from",
          "type": "address"
        },
        {
          "indexed": true,
          "internalType": "address",
          "name": "to",
          "type": "address"
        },
        {
          "indexed": false,
          "internalType": "uint256[]",
          "name": "tokenIds",
          "type": "uint256[]"
        }
      ],
      "name": "SingleNFTBatchTransfer",
      "type": "event"
    },
    {
      "inputs": [
        {
          "internalType": "address[]",
          "name": "nftContracts",
          "type": "address[]"
        },
        {
          "internalType": "address",
          "name": "to",
          "type": "address"
        },
        {
          "internalType": "uint256[]",
          "name": "tokenIds",
          "type": "uint256[]"
        }
      ],
      "name": "batchTransferMultipleNFTCollections",
      "outputs": [],
      "stateMutability": "nonpayable",
      "type": "function"
    },
    {
      "inputs": [
        {
          "internalType": "address[]",
          "name": "tokenContracts",
          "type": "address[]"
        },
        {
          "internalType": "address",
          "name": "to",
          "type": "address"
        },
        {
          "internalType": "uint256[]",
          "name": "amounts",
          "type": "uint256[]"
        }
      ],
      "name": "batchTransferMultipleTokens",
      "outputs": [],
      "stateMutability": "nonpayable",
      "type": "function"
    },
    {
      "inputs": [
        {
          "internalType": "address",
          "name": "nftContract",
          "type": "address"
        },
        {
          "internalType": "address[]",
          "name": "recipients",
          "type": "address[]"
        },
        {
          "internalType": "uint256[]",
          "name": "tokenIds",
          "type": "uint256[]"
        }
      ],
      "name": "batchTransferNFT",
      "outputs": [],
      "stateMutability": "nonpayable",
      "type": "function"
    },
    {
      "inputs": [
        {
          "internalType": "address",
          "name": "nftContract",
          "type": "address"
        },
        {
          "internalType": "address",
          "name": "to",
          "type": "address"
        },
        {
          "internalType": "uint256[]",
          "name": "tokenIds",
          "type": "uint256[]"
        }
      ],
      "name": "batchTransferNFTToSingle",
      "outputs": [],
      "stateMutability": "nonpayable",
      "type": "function"
    },
    {
      "inputs": [
        {
          "internalType": "address",
          "name": "tokenContract",
          "type": "address"
        },
        {
          "internalType": "address[]",
          "name": "recipients",
          "type": "address[]"
        },
        {
          "internalType": "uint256[]",
          "name": "amounts",
          "type": "uint256[]"
        }
      ],
      "name": "batchTransferToken",
      "outputs": [],
      "stateMutability": "nonpayable",
      "type": "function"
    },
    {
      "inputs": [
        {
          "internalType": "address",
          "name": "tokenContract",
          "type": "address"
        },
        {
          "internalType": "address[]",
          "name": "recipients",
          "type": "address[]"
        },
        {
          "internalType": "uint256",
          "name": "amountPerRecipient",
          "type": "uint256"
        }
      ],
      "name": "batchTransferTokenEqual",
      "outputs": [],
      "stateMutability": "nonpayable",
      "type": "function"
    },
    {
      "inputs": [
        {
          "internalType": "address",
          "name": "nftContract",
          "type": "address"
        },
        {
          "internalType": "address[]",
          "name": "nftRecipients",
          "type": "address[]"
        },
        {
          "internalType": "uint256[]",
          "name": "tokenIds",
          "type": "uint256[]"
        },
        {
          "internalType": "address",
          "name": "tokenContract",
          "type": "address"
        },
        {
          "internalType": "address[]",
          "name": "tokenRecipients",
          "type": "address[]"
        },
        {
          "internalType": "uint256[]",
          "name": "tokenAmounts",
          "type": "uint256[]"
        }
      ],
      "name": "combinedBatchTransfer",
      "outputs": [],
      "stateMutability": "nonpayable",
      "type": "function"
    },
    {
      "inputs": [
        {
          "internalType": "address",
          "name": "tokenContract",
          "type": "address"
        },
        {
          "internalType": "address",
          "name": "owner",
          "type": "address"
        },
        {
          "internalType": "uint256",
          "name": "amount",
          "type": "uint256"
        }
      ],
      "name": "hasTokenAllowance",
      "outputs": [
        {
          "internalType": "bool",
          "name": "",
          "type": "bool"
        }
      ],
      "stateMutability": "view",
      "type": "function"
    },
    {
      "inputs": [
        {
          "internalType": "address",
          "name": "nftContract",
          "type": "address"
        },
        {
          "internalType": "address",
          "name": "owner",
          "type": "address"
        }
      ],
      "name": "isNFTApproved",
      "outputs": [
        {
          "internalType": "bool",
          "name": "",
          "type": "bool"
        }
      ],
      "stateMutability": "view",
      "type": "function"
    },
    {
      "inputs": [
        {
          "internalType": "address",
          "name": "",
          "type": "address"
        },
        {
          "internalType": "address",
          "name": "",
          "type": "address"
        },
        {
          "internalType": "uint256",
          "name": "",
          "type": "uint256"
        },
        {
          "internalType": "bytes",
          "name": "",
          "type": "bytes"
        }
      ],
      "name": "onERC721Received",
      "outputs": [
        {
          "internalType": "bytes4",
          "name": "",
          "type": "bytes4"
        }
      ],
      "stateMutability": "pure",
      "type": "function"
    }
  ],
  "transactionHash": "0x4ca33acf2b57787c5d2a8e940b95978e725bbf9ffe8c75f8d93e0c7b7834e26b",
  "args": [],
  "numDeployments": 1,
  "solcInputHash": "e104b196d5d9abde523f6f34638a92da",
  "bytecode": "0x60808060405234601557611bca908161001a8239f35b5f80fdfe6080806040526004361015610012575f80fd5b5f3560e01c908163150b7a0214611320575080631e66e2001461116857806320651d5d1461105b5780633e33c83014610f4f5780634f007f381461094d578063ad3e3a5d14610847578063bdc1bf701461064c578063db7a0a4814610547578063ec00acc7146102a45763ecd2721d1461008a575f80fd5b3461027257610098366114ce565b9093926100a3611a09565b6100ae82821461176a565b6100cf73ffffffffffffffffffffffffffffffffffffffff84161515611684565b6100da8115156117cf565b5f5b818110610108575f7f9b779b17422d0df92223018b32b4d1fa46e071723d6817e2486d003becc55f005d005b61013b73ffffffffffffffffffffffffffffffffffffffff61013361012e84868a611626565b611663565b16151561193f565b73ffffffffffffffffffffffffffffffffffffffff61015e61012e838589611626565b169061016b818589611626565b35604051907f6352211e0000000000000000000000000000000000000000000000000000000082526004820152602081602481865afa8015610267576101d0915f91610276575b5073ffffffffffffffffffffffffffffffffffffffff1633146119a4565b6101db818589611626565b3591803b15610272576040517f42842e0e00000000000000000000000000000000000000000000000000000000815233600482015273ffffffffffffffffffffffffffffffffffffffff8716602482015260448101939093525f908390606490829084905af191821561026757600192610257575b50016100dc565b5f61026191611841565b5f610250565b6040513d5f823e3d90fd5b5f80fd5b610297915060203d811161029d575b61028f8183611841565b8101906118af565b5f6101b2565b503d610285565b346102725760607ffffffffffffffffffffffffffffffffffffffffffffffffffffffffffffffffc360112610272576102db6113c5565b6102e36113e8565b906044359067ffffffffffffffff82116102725761031a73ffffffffffffffffffffffffffffffffffffffff92369060040161140b565b929091610325611a09565b169061033282151561193f565b73ffffffffffffffffffffffffffffffffffffffff841693610355851515611684565b83156104e9575f5b8481106103c95750506103a17f169bb57970e51dde7f82dbdd1355c1a675ea1c9798d89454edff0a08a3fa0e1e9160405191829160208352339660208401916118db565b0390a45f7f9b779b17422d0df92223018b32b4d1fa46e071723d6817e2486d003becc55f005d005b6103d4818685611626565b35604051907f6352211e0000000000000000000000000000000000000000000000000000000082526004820152602081602481885afa801561026757610438915f916104cb575073ffffffffffffffffffffffffffffffffffffffff1633146119a4565b610443818685611626565b3590843b15610272576040517f42842e0e00000000000000000000000000000000000000000000000000000000815233600482015273ffffffffffffffffffffffffffffffffffffffff8416602482015260448101929092525f8260648183895af1918215610267576001926104bb575b500161035d565b5f6104c591611841565b876104b4565b6104e3915060203d811161029d5761028f8183611841565b886101b2565b60646040517f08c379a000000000000000000000000000000000000000000000000000000000815260206004820152601160248201527f456d70747920746f6b656e2061727261790000000000000000000000000000006044820152fd5b3461027257610555366114ce565b9161055e611a09565b61056983851461176a565b61058a73ffffffffffffffffffffffffffffffffffffffff82161515611684565b6105958415156117cf565b5f5b8481106105c3575f7f9b779b17422d0df92223018b32b4d1fa46e071723d6817e2486d003becc55f005d005b806105f473ffffffffffffffffffffffffffffffffffffffff6105ec61012e6001958a8c611626565b16151561155c565b61060a610602828787611626565b3515156115c1565b61064673ffffffffffffffffffffffffffffffffffffffff61063061012e848a8c611626565b168461063d848989611626565b35913390611a7d565b01610597565b346102725773ffffffffffffffffffffffffffffffffffffffff61066f3661143c565b919361067c959195611a09565b169261068984151561193f565b61069482821461176a565b61069f8115156117cf565b5f5b8281106107065750906106de7f770d19e9db4539c476b14ed81ffcca41eb2f0ff77ea58db90ae915c29464f5149392604051938493339885611918565b0390a35f7f9b779b17422d0df92223018b32b4d1fa46e071723d6817e2486d003becc55f005d005b61073473ffffffffffffffffffffffffffffffffffffffff61072c61012e848689611626565b161515611684565b61073f818488611626565b35604051907f6352211e0000000000000000000000000000000000000000000000000000000082526004820152602081602481895afa8015610267576107a3915f916104cb575073ffffffffffffffffffffffffffffffffffffffff1633146119a4565b6107b161012e828487611626565b906107bd818589611626565b3591863b15610272576040517f42842e0e00000000000000000000000000000000000000000000000000000000815233600482015273ffffffffffffffffffffffffffffffffffffffff91909116602482015260448101929092525f82606481838a5af191821561026757600192610837575b50016106a1565b5f61084191611841565b87610830565b346102725760607ffffffffffffffffffffffffffffffffffffffffffffffffffffffffffffffffc3601126102725773ffffffffffffffffffffffffffffffffffffffff60206108f86108986113c5565b6108a06113e8565b6040517fdd62ed3e00000000000000000000000000000000000000000000000000000000815273ffffffffffffffffffffffffffffffffffffffff909116600482015230602482015293849283919082906044820190565b0392165afa8015610267575f9061091a575b6020906040519060443511158152f35b506020813d602011610945575b8161093460209383611841565b81010312610272576020905161090a565b3d9150610927565b346102725760c07ffffffffffffffffffffffffffffffffffffffffffffffffffffffffffffffffc360112610272576109846113c5565b60243567ffffffffffffffff8111610272576109a490369060040161140b565b60449291923567ffffffffffffffff8111610272576109c790369060040161140b565b90926064359373ffffffffffffffffffffffffffffffffffffffff85168095036102725760843567ffffffffffffffff811161027257610a0b90369060040161140b565b93909460a4359767ffffffffffffffff891161027257610a4473ffffffffffffffffffffffffffffffffffffffff99369060040161140b565b999095610a4f611a09565b169283610c86575b505050505083610a87575b5f7f9b779b17422d0df92223018b32b4d1fa46e071723d6817e2486d003becc55f005d005b848203610c2857935f945f915b838310610ae95750505080610aaa575b80610a62565b7fb182cacc56ef8b8a4b3ad014ef0c931ec9a552ed21733951dcd68d35e243464791610add604051928392339784611750565b0390a380808080610aa4565b90919573ffffffffffffffffffffffffffffffffffffffff610b0f61012e898789611626565b1615610bca57610b20878385611626565b3515610b6c57610b63600191610b51610b3d61012e8b898b611626565b610b488b8789611626565b3590338b611a7d565b610b5c898587611626565b3590611834565b96019190610a94565b60646040517f08c379a000000000000000000000000000000000000000000000000000000000815260206004820152601460248201527f496e76616c696420746f6b656e20616d6f756e740000000000000000000000006044820152fd5b60646040517f08c379a000000000000000000000000000000000000000000000000000000000815260206004820152601760248201527f496e76616c696420746f6b656e20726563697069656e740000000000000000006044820152fd5b60646040517f08c379a000000000000000000000000000000000000000000000000000000000815260206004820152601c60248201527f546f6b656e20617272617973206c656e677468206d69736d61746368000000006044820152fd5b808303610ef1575f5b818110610cdd57508015610a5757610cd07f770d19e9db4539c476b14ed81ffcca41eb2f0ff77ea58db90ae915c29464f51493604051938493339885611918565b0390a38580808080610a57565b73ffffffffffffffffffffffffffffffffffffffff610d0061012e838787611626565b1615610e9357610d11818388611626565b35604051907f6352211e0000000000000000000000000000000000000000000000000000000082526004820152602081602481895afa908115610267575f91610e75575b5073ffffffffffffffffffffffffffffffffffffffff33911603610e1757610d8161012e828686611626565b90610d8d818489611626565b3591863b15610272576040517f42842e0e00000000000000000000000000000000000000000000000000000000815233600482015273ffffffffffffffffffffffffffffffffffffffff91909116602482015260448101929092525f82606481838a5af191821561026757600192610e07575b5001610c8f565b5f610e1191611841565b8c610e00565b60646040517f08c379a000000000000000000000000000000000000000000000000000000000815260206004820152600d60248201527f4e6f74204e4654206f776e6572000000000000000000000000000000000000006044820152fd5b610e8d915060203d811161029d5761028f8183611841565b8c610d55565b60646040517f08c379a000000000000000000000000000000000000000000000000000000000815260206004820152601560248201527f496e76616c6964204e465420726563697069656e7400000000000000000000006044820152fd5b60646040517f08c379a000000000000000000000000000000000000000000000000000000000815260206004820152601a60248201527f4e465420617272617973206c656e677468206d69736d617463680000000000006044820152fd5b346102725760407ffffffffffffffffffffffffffffffffffffffffffffffffffffffffffffffffc3601126102725773ffffffffffffffffffffffffffffffffffffffff6020611000610fa06113c5565b610fa86113e8565b6040517fe985e9c500000000000000000000000000000000000000000000000000000000815273ffffffffffffffffffffffffffffffffffffffff909116600482015230602482015293849283919082906044820190565b0392165afa8015610267575f9061101f575b6020906040519015158152f35b506020813d602011611053575b8161103960209383611841565b810103126102725751801515810361027257602090611012565b3d915061102c565b346102725773ffffffffffffffffffffffffffffffffffffffff61107e3661143c565b94909361108c939293611a09565b169261109984151561155c565b6110a485841461176a565b6110af8315156117cf565b5f945f915b8483106110f257505050907fb182cacc56ef8b8a4b3ad014ef0c931ec9a552ed21733951dcd68d35e2434647916106de604051928392339784611750565b90919561113a60019161112173ffffffffffffffffffffffffffffffffffffffff61072c61012e8c8b8b611626565b61112f6106028a8787611626565b610b5c898686611626565b9661116061114c61012e838989611626565b611157838787611626565b3590338a611a7d565b0191906110b4565b346102725760607ffffffffffffffffffffffffffffffffffffffffffffffffffffffffffffffffc3601126102725761119f6113c5565b60243567ffffffffffffffff8111610272576111bf90369060040161140b565b73ffffffffffffffffffffffffffffffffffffffff604435936111e0611a09565b16906111ed82151561155c565b80156112c25783159261120084156115c1565b8185029385850483141715611295575f5b82811061124d5750907fb182cacc56ef8b8a4b3ad014ef0c931ec9a552ed21733951dcd68d35e2434647916106de604051928392339784611750565b8061127673ffffffffffffffffffffffffffffffffffffffff61072c61012e6001958888611626565b61128f8761128861012e848888611626565b3388611a7d565b01611211565b7f4e487b71000000000000000000000000000000000000000000000000000000005f52601160045260245ffd5b60646040517f08c379a000000000000000000000000000000000000000000000000000000000815260206004820152601660248201527f456d70747920726563697069656e7473206172726179000000000000000000006044820152fd5b346102725760807ffffffffffffffffffffffffffffffffffffffffffffffffffffffffffffffffc360112610272576113576113c5565b506113606113e8565b5060643567ffffffffffffffff8111610272573660238201121561027257806004013567ffffffffffffffff8111610272573691016024011161027257807f150b7a020000000000000000000000000000000000000000000000000000000060209252f35b6004359073ffffffffffffffffffffffffffffffffffffffff8216820361027257565b6024359073ffffffffffffffffffffffffffffffffffffffff8216820361027257565b9181601f840112156102725782359167ffffffffffffffff8311610272576020808501948460051b01011161027257565b9060607ffffffffffffffffffffffffffffffffffffffffffffffffffffffffffffffffc8301126102725760043573ffffffffffffffffffffffffffffffffffffffff81168103610272579160243567ffffffffffffffff811161027257816114a79160040161140b565b929092916044359067ffffffffffffffff8211610272576114ca9160040161140b565b9091565b9060607ffffffffffffffffffffffffffffffffffffffffffffffffffffffffffffffffc8301126102725760043567ffffffffffffffff811161027257826115189160040161140b565b9290929160243573ffffffffffffffffffffffffffffffffffffffff8116810361027257916044359067ffffffffffffffff8211610272576114ca9160040161140b565b1561156357565b60646040517f08c379a000000000000000000000000000000000000000000000000000000000815260206004820152601e60248201527f496e76616c696420746f6b656e20636f6e7472616374206164647265737300006044820152fd5b156115c857565b60646040517f08c379a000000000000000000000000000000000000000000000000000000000815260206004820152601d60248201527f416d6f756e74206d7573742062652067726561746572207468616e20300000006044820152fd5b91908110156116365760051b0190565b7f4e487b71000000000000000000000000000000000000000000000000000000005f52603260045260245ffd5b3573ffffffffffffffffffffffffffffffffffffffff811681036102725790565b1561168b57565b60646040517f08c379a000000000000000000000000000000000000000000000000000000000815260206004820152601960248201527f496e76616c696420726563697069656e742061646472657373000000000000006044820152fd5b916020908281520191905f905b8082106117035750505090565b90919283359073ffffffffffffffffffffffffffffffffffffffff82168203610272576020809173ffffffffffffffffffffffffffffffffffffffff6001941681520194019201906116f6565b6040906117679492815281602082015201916116e9565b90565b1561177157565b60646040517f08c379a000000000000000000000000000000000000000000000000000000000815260206004820152601660248201527f417272617973206c656e677468206d69736d61746368000000000000000000006044820152fd5b156117d657565b60646040517f08c379a000000000000000000000000000000000000000000000000000000000815260206004820152600c60248201527f456d7074792061727261797300000000000000000000000000000000000000006044820152fd5b9190820180921161129557565b90601f7fffffffffffffffffffffffffffffffffffffffffffffffffffffffffffffffe0910116810190811067ffffffffffffffff82111761188257604052565b7f4e487b71000000000000000000000000000000000000000000000000000000005f52604160045260245ffd5b90816020910312610272575173ffffffffffffffffffffffffffffffffffffffff811681036102725790565b90918281527f07ffffffffffffffffffffffffffffffffffffffffffffffffffffffffffffff83116102725760209260051b809284830137010190565b92906119319061176795936040865260408601916118db565b9260208185039101526116e9565b1561194657565b60646040517f08c379a000000000000000000000000000000000000000000000000000000000815260206004820152601c60248201527f496e76616c6964204e465420636f6e74726163742061646472657373000000006044820152fd5b156119ab57565b60646040517f08c379a000000000000000000000000000000000000000000000000000000000815260206004820152600f60248201527f4e6f7420746f6b656e206f776e657200000000000000000000000000000000006044820152fd5b7f9b779b17422d0df92223018b32b4d1fa46e071723d6817e2486d003becc55f005c611a555760017f9b779b17422d0df92223018b32b4d1fa46e071723d6817e2486d003becc55f005d565b7f3ee5aeb5000000000000000000000000000000000000000000000000000000005f5260045ffd5b92905f91611b15602094611ae9604051938492888401967f23b872dd0000000000000000000000000000000000000000000000000000000088526024850173ffffffffffffffffffffffffffffffffffffffff6040929594938160608401971683521660208201520152565b037fffffffffffffffffffffffffffffffffffffffffffffffffffffffffffffffe08101835282611841565b519082855af115610267575f513d611b8b575073ffffffffffffffffffffffffffffffffffffffff81163b155b611b495750565b73ffffffffffffffffffffffffffffffffffffffff907f5274afe7000000000000000000000000000000000000000000000000000000005f521660045260245ffd5b60011415611b4256fea26469706673582212205d50f8d404113bb6c4d49c0217ced27d0e803e831a2d2baf30a89cf7ddccc16d64736f6c634300081c0033",
  "devdoc": {
    "details": "Batch transfer contract for NFTs (ERC721) and Fungible Tokens (ERC20)",
    "errors": {
      "ReentrancyGuardReentrantCall()": [
        {
          "details": "Unauthorized reentrant call."
        }
      ],
      "SafeERC20FailedOperation(address)": [
        {
          "details": "An operation with an ERC-20 token failed."
        }
      ]
    },
    "kind": "dev",
    "methods": {
      "batchTransferMultipleNFTCollections(address[],address,uint256[])": {
        "details": "Transfer multiple NFTs from different collections to a single recipient",
        "params": {
          "nftContracts": "Array of ERC721 contract addresses",
          "to": "Recipient address",
          "tokenIds": "Array of token IDs (must match nftContracts length)"
        }
      },
      "batchTransferMultipleTokens(address[],address,uint256[])": {
        "details": "Batch transfer multiple ERC20 tokens to a single recipient",
        "params": {
          "amounts": "Array of token amounts (must match tokenContracts length)",
          "to": "Recipient address",
          "tokenContracts": "Array of ERC20 contract addresses"
        }
      },
      "batchTransferNFT(address,address[],uint256[])": {
        "details": "Batch transfer NFTs from msg.sender to multiple recipients",
        "params": {
          "nftContract": "Address of the ERC721 contract",
          "recipients": "Array of recipient addresses (must match tokenIds length)",
          "tokenIds": "Array of token IDs to transfer"
        }
      },
      "batchTransferNFTToSingle(address,address,uint256[])": {
        "details": "Transfer multiple NFTs from msg.sender to a single recipient",
        "params": {
          "nftContract": "Address of the ERC721 contract",
          "to": "Recipient address",
          "tokenIds": "Array of token IDs to transfer"
        }
      },
      "batchTransferToken(address,address[],uint256[])": {
        "details": "Batch transfer ERC20 tokens from msg.sender to multiple recipients",
        "params": {
          "amounts": "Array of token amounts to transfer (must match recipients length)",
          "recipients": "Array of recipient addresses",
          "tokenContract": "Address of the ERC20 contract"
        }
      },
      "batchTransferTokenEqual(address,address[],uint256)": {
        "details": "Batch transfer equal amounts of ERC20 tokens to multiple recipients",
        "params": {
          "amountPerRecipient": "Amount of tokens to send to each recipient",
          "recipients": "Array of recipient addresses",
          "tokenContract": "Address of the ERC20 contract"
        }
      },
      "combinedBatchTransfer(address,address[],uint256[],address,address[],uint256[])": {
        "details": "Combined batch transfer of both NFTs and ERC20 tokens",
        "params": {
          "nftContract": "Address of the ERC721 contract (set to address(0) to skip NFT transfer)",
          "nftRecipients": "Array of NFT recipient addresses",
          "tokenAmounts": "Array of token amounts",
          "tokenContract": "Address of the ERC20 contract (set to address(0) to skip token transfer)",
          "tokenIds": "Array of NFT token IDs",
          "tokenRecipients": "Array of token recipient addresses"
        }
      },
      "hasTokenAllowance(address,address,uint256)": {
        "details": "Check if user has sufficient token allowance for this contract",
        "params": {
          "amount": "Required amount",
          "owner": "Address of the token owner",
          "tokenContract": "Address of the ERC20 contract"
        },
        "returns": {
          "_0": "bool Whether the allowance is sufficient"
        }
      },
      "isNFTApproved(address,address)": {
        "details": "Check if user has approved this contract for a specific NFT collection",
        "params": {
          "nftContract": "Address of the ERC721 contract",
          "owner": "Address of the token owner"
        },
        "returns": {
          "_0": "bool Whether the contract is approved"
        }
      },
      "onERC721Received(address,address,uint256,bytes)": {
        "details": "Whenever an {IERC721} tokenId token is transferred to this contract via {IERC721-safeTransferFrom} by operator from from, this function is called."
      }
    },
    "title": "BatchTransfer",
    "version": 1
  },
  "userdoc": {
    "kind": "user",
    "methods": {
      "batchTransferMultipleNFTCollections(address[],address,uint256[])": {
        "notice": "msg.sender must own all tokenIds and have approved this contract for each collection"
      },
      "batchTransferMultipleTokens(address[],address,uint256[])": {
        "notice": "msg.sender must have approved this contract for each token"
      },
      "batchTransferNFT(address,address[],uint256[])": {
        "notice": "msg.sender must own all tokenIds and have approved this contract"
      },
      "batchTransferNFTToSingle(address,address,uint256[])": {
        "notice": "msg.sender must own all tokenIds and have approved this contract"
      },
      "batchTransferToken(address,address[],uint256[])": {
        "notice": "msg.sender must have approved this contract for the total amount"
      },
      "batchTransferTokenEqual(address,address[],uint256)": {
        "notice": "msg.sender must have approved this contract for (amountPerRecipient * recipients.length)"
      },
      "combinedBatchTransfer(address,address[],uint256[],address,address[],uint256[])": {
        "notice": "This function allows transferring both NFTs and tokens in a single transaction"
      }
    },
    "notice": "This contract allows users to batch transfer NFT and FT tokens efficiently",
    "version": 1
  },
  "storageLayout": {
    "storage": [],
    "types": null
  }
}